:020000020000FC
:040000000C947E07D7
:04002C000C948800A8
:040024000C949203A3
:100060004DC7A02FB12F4C91A22FB32F5D914517F3
:1000700051F4403051F02A2F3B2FA02FB12F4D913A
:100080000A2F1B2FEECF88940895089408952FEF20
:100090002F9320E030E00A3008F002C0103039F031
:1000A0002395203009F433950E946900F4CF0F9313
:1000B000022F132F003069F7103009F0EACF0F91AB
:1000C0000F3F21F010E3010F0D93F9CF00E00D93E6
:1000D000089540E04395003011F41A9500E00A9528
:1000E0004A30C1F708951091AC0010231017D9F3CE
:1000F00008950E9473001091AC00102B1093AC0077
:1001000008951091AC00009510231093AC00089551
:100110006F91D62F6F91C62F6FB70E942401A92F20
:10012000B0E010E6A10F10E0B11F0D91002341F4E3
:1001300093959530A1F790E000E002BF90E0EFCFFB
:100140000E940801EDBFFEBFEC2FFD2F90936600CB
:100150009395953009F490E06FBF78940994F894E2
:1001600030E0A0E6B0E02D912D91201721F03395DD
:10017000343089F0F9CF00E00E9301E00E94810055
:1001800002E00E948100109165001A9510936500AD
:10019000789408940895889401E00E94810002E018
:1001A0000E9481000895F89400916500053071F176
:1001B00003950093650030E0A0E6B0E033950D9123
:1001C000002319F03530D1F721C03A951E93232F23
:1001D0001DE0319FA02DB12D17E6A10F10E0B11F3A
:1001E00000E00D930D930D930D930D930D930D93CF
:1001F000ED93FD9300E4209FE02DF12D0FE1E00F42
:1002000003E0F01FED93FD930894089588940895FA
:100210000DE0099FA02DB12D17E6A10F10E0B11F31
:10022000CFB7C0780D911D912D913D914D915D916C
:100230006D916F776C2BCD91DD91ED91FD917D915D
:100240008D91A72FB82F08957A2F8B2F0F931F937F
:100250009F930DE090916600099FA02DB12D17E6A8
:10026000A10F10E0B11F9F911F910F910D931D934E
:100270002D933D934D935D936D93CD93DD93CDB7CA
:10028000DEB702E0C00F00E0D01FCD93DD937D9379
:100290008D9308950F931F93FF93EF9310E01395A1
:1002A0000591002361F0003119F4FAD10C945D013D
:1002B000113111F410E0F4D111D20C944F01EF91EF
:1002C000FF911F910F9108950F931F9310E01395C5
:1002D0000D91002319F002D20C9467011F910F9128
:1002E00008952F933F930F932FEF3FEE303009F493
:1002F0003395032F2A95302F3A9500000000000017
:1003000000000000C9F72223A9F70F913F912F9118
:1003100000E305BB2F933F930F932FEF3FEE303059
:1003200009F43395032F2A95302F3A9500000000E9
:10033000000000000000C9F72223A9F70F913F91A8
:100340002F91A898A998AA982F933F930F932FEFD6
:1003500032E0303009F43395032F2A95302F3A9547
:1003600000000000000000000000C9F72223A9F7E8
:100370000F913F912F9100E205BBAA9A2F933F93D3
:100380000F932FEF35E5303009F43395032F2A957D
:10039000302F3A9500000000000000000000C9F76F
:1003A0002223A9F70F913F912F91AA9800E005BB56
:1003B00008E294D00EE092D001E090D006E08ED01A
:1003C00008951F932F933F93202F302F207F3F704E
:1003D000A898A998AA982F933F930F9323E138E107
:1003E000303009F43395032F2A95302F3A950000C9
:1003F0000000000000000000C9F72223A9F70F91B8
:100400003F912F91A89A2F933F930F9323E138E1C7
:10041000303009F43395032F2A95302F3A95000098
:100420000000000000000000C9F72223A9F70F9187
:100430003F912F91216025BBAA9A2F933F930F9351
:1004400023E138E1303009F43395032F2A95302F1A
:100450003A9500000000000000000000C9F72223C8
:10046000A9F70F913F912F91AA982F933F930F9344
:1004700023E138E1303009F43395032F2A95302FEA
:100480003A9500000000000000000000C9F7222398
:10049000A9F70F913F912F913295316035BBAA9A00
:1004A0002F933F930F9323E138E1303009F43395D4
:1004B000032F2A95302F3A9500000000000000001D
:1004C0000000C9F72223A9F70F913F912F91AA9815
:1004D00010E015BB3F912F911F9108951F932F930B
:1004E0003F93202F302F207F3F70A898A998AA987B
:1004F00025BBAA9A2F933F930F9323E138E1303025
:1005000009F43395032F2A95302F3A950000000007
:10051000000000000000C9F72223A9F70F913F91C6
:100520002F91AA98329535BBAA9A2F933F930F9398
:1005300023E138E1303009F43395032F2A95302F29
:100540003A9500000000000000000000C9F72223D7
:10055000A9F70F913F912F91AA9810E015BB3F91F9
:100560002F911F9108951F930FE004BBA898AA989C
:10057000A9982F933F930F9323E138E1303009F48A
:100580003395032F2A95302F3A9500000000000084
:1005900000000000C9F72223A9F70F913F912F9186
:1005A000A99AAA9A2F933F930F9323E138E1303011
:1005B00009F43395032F2A95302F3A950000000057
:1005C000000000000000C9F72223A9F70F913F9116
:1005D0002F9103B3AA982F933F930F9323E138E110
:1005E000303009F43395032F2A95302F3A950000C7
:1005F0000000000000000000C9F72223A9F70F91B6
:100600003F912F91AA9A2F933F930F9323E138E1C3
:10061000303009F43395032F2A95302F3A95000096
:100620000000000000000000C9F72223A9F70F9185
:100630003F912F9113B3AA98A9982F933F930F93AB
:1006400023E138E1303009F43395032F2A95302F18
:100650003A9500000000000000000000C9F72223C6
:10066000A9F70F913F912F91007F1F70012B1FEF72
:1006700014BB1F9108950F9376DF00780038E1F3E3
:100680000F9108950F9300E829DFF5DF0F9108958A
:100690000F9301E00E946E020E943B030F910895A8
:1006A0000F9300EC1BDFE7DF0F9108950F9300E13C
:1006B00015DFE1DF0F9108950F9304E10FDFDBDF1A
:1006C0000F9108950F930CE109DFD5DF0F91089585
:1006D0000F9308E103DFCFDF0F91089572DECBDFC8
:1006E000089506B1006406B92F933F930F9320E05D
:1006F00031E0303009F43395032F2A95302F3A95A5
:1007000000000000000000000000C9F72223A9F744
:100710000F913F912F9108950770006C07B907E87A
:1007200006B908950F931F932F9307EF12EC0CBD9A
:100730001DBD0091A8000B3349F51091A9001B3392
:10074000D9F42091AA00273159F420E02093AA007F
:100750002093A9002093A8002F911F910F91189525
:1007600000E00093A9000093A80023952093AA001D
:100770002F911F910F91189500E00093A8001395F9
:100780001093A9002F911F910F9118950395009335
:10079000A8002F911F910F91189506E800BD08E160
:1007A0000AB900E000BD07E609B908951BB1107849
:1007B000E9F30CB108951BB11072E9F30CB9089577
:1007C0000E94D6030D3021F00D930E94DB03F8CF79
:1007D00000E00D9308950D91003019F00E94DB03A5
:1007E000FACF08950591003019F00E94DB03FACF8B
:1007F00008950E944803AFEAB0E00E94640100E857
:100800000BBB2F933F930F932FEF3FEF303009F443
:100810003395032F2A95302F3A95000000000000F1
:1008200000000000C9F72223A9F70F913F912F91F3
:100830000E94D6030E94DB03013409F50E94D6030F
:100840000E94DB03202F0E94BC05205302E00E947F
:100850007900022F0E948C030E94710302E00E9423
:10086000810004B115B1AFEAB0E00E944700AFEAE1
:10087000B0E00E94EB030DE00E94DB03C2CF023523
:1008800009F072C00E94D6030E94DB03202F0E9451
:10089000BC05022FF894013359F0023301F1033300
:1008A000A9F1043309F449C078940E94DF05A9CF67
:1008B0000091AE00017021F00E94DF057894A1CF75
:1008C000EAEFF5E012E00E94D3000E94CF0511E0AC
:1008D0000091AE00012B0093AE00789492CF00916E
:1008E000AE00027021F00E94DF0578948ACFEAE31F
:1008F000F6E013E00E94D3000E94CF0512E00091C1
:10090000AE00012B0093AE0078947BCF0091AE0037
:10091000047021F00E94DF05789473CFE2E6F6E0E0
:1009200014E00E94D3000E94CF0514E00091AE00B5
:10093000012B0093AE00789464CF0091AE00087054
:1009400021F00E94DF0578945CCFECE9F6E015E039
:100950000E94D3000E94CF0518E00091AE00012B49
:100960000093AE0078944DCF0B3409F05BC00E9429
:10097000D6030E94DB03202F0E94BC05022F013307
:1009800049F00233C9F0033349F10433C9F10E943D
:10099000DF0537CF0091AE00017019F40E94DF052A
:1009A00030CF02E00E94AF000E94CF050091AE0060
:1009B0000E7F0093AE0025CF0091AE00027019F4B7
:1009C0000E94DF051ECF03E00E94AF000E94CF050A
:1009D0000091AE000D7F0093AE0013CF0091AE00EA
:1009E000047019F40E94DF050CCF04E00E94AF00F0
:1009F0000E94CF050091AE000B7F0093AE0001CFA7
:100A00000091AE00087019F40E94DF05FACE05E0EF
:100A10000E94AF000E94CF050091AE00077F0093B7
:100A2000AE00EFCE003589F40E94BC0510E00091C5
:100A30006500AFEAB0E00E944700AFEAB0E00E9474
:100A4000EB030DE00E94DB03DCCE033589F40E944A
:100A5000BC0510E00091A800AFEAB0E00E9447009A
:100A6000AFEAB0E00E94EB030DE00E94DB03C9CEC9
:100A70000D3489F40E94BC0510E00091A900AFEA92
:100A8000B0E00E944700AFEAB0E00E94EB030DE047
:100A90000E94DB03B6CE083489F40E94BC0510E046
:100AA0000091AA00AFEAB0E00E944700AFEAB0E0D0
:100AB0000E94EB030DE00E94DB03A3CE0F3451F53F
:100AC0000E94D6030E94DB03202F0E94BC05022F48
:100AD00010E0013429F0023481F00E94DF0591CE4C
:100AE0000BB3AFEAB0E00E944700AFEAB0E00E946B
:100AF000EB030DE00E94DB0384CE08B3AFEAB0E065
:100B00000E944700AFEAB0E00E94EB030DE00E94B4
:100B1000DB0377CE093451F50E94D6030E94DB0334
:100B2000202F0E94BC05022F10E0013429F002346E
:100B300081F00E94DF0565CE09B3AFEAB0E00E9404
:100B40004700AFEAB0E00E94EB030DE00E94DB0338
:100B500058CE06B3AFEAB0E00E944700AFEAB0E07B
:100B60000E94EB030DE00E94DB034BCE0DE00E94E0
:100B7000DB030E94DF0545CE0DE00E94DB0300E2AF
:100B80000E94DB030E94DB030E94DB030E94DB0365
:100B90000DE30E94DB0300E20E94DB03089504E4FE
:100BA0000E94DB030FE60E94DB030EE60E94DB03DC
:100BB00005E60E94DB030DE00E94DB03089505E4D7
:100BC0000E94DB0302E70E94DB0302E70E94DB03D3
:100BD0000FE60E94DB0302E70E94DB0301E20E94B2
:100BE000DB030DE00E94DB03089506E705BD0895D1
:100BF00003BD089507B3016020E830E007BBC09A49
:100C00002F933F930F9320E031E0303009F4339578
:100C1000032F2A95302F3A950000000000000000B5
:100C20000000C9F72223A9F70F913F912F91C09897
:100C30002F933F930F9320E031E0303009F4339548
:100C4000032F2A95302F3A95000000000000000085
:100C50000000C9F72223A9F70F913F912F91139517
:100C60001F3F69F610E03395343630E02095207C44
:100C70002BBBC5CF07B3006F07BBB39BFECFB399A8
:100C8000FECF11961A2F1F7008B3012B000F000F13
:100C9000000F000F08BBAF93BF930A2F1B2FA0E0DC
:100CA000B1E00E944700A0E0B1E001E00E947900BD
:100CB0000E9448030E94640101E00E948100BF91EC
:100CC000AF91DBCF50E00091A8000517E1F3502F62
:100CD00002E00E94790000E00E948C030E947103F0
:100CE00002E00E94810004B115B10E9499060E94A1
:100CF0009906A6E0B1E00E94470001E00E94790059
:100D00000E94480304E50E946E0305E40E946E03FE
:100D10000DE40E946E0300E50E946E030AE30E9448
:100D20006E03A6E0B1E00E94640101E00E94810030
:100D3000CACF16950795089500E801BB0E94F505F6
:100D400050E0B19BFECFB199FECF05E0500F052FCB
:100D50000E94F805052F10E0ACE0B1E00E944700CA
:100D6000ACE0B1E001E00E9479000E9448030E94DB
:100D7000640101E00E948100E4CF2A2A2A2A2A4144
:100D80005652204F532A2A2A2A2A205665727369FE
:100D90006F6E312E302E3020000048656C6C6F2055
:100DA00046726F6D204D206520672061203120360E
:100DB000202121210D4156524F53205665727369EF
:100DC0006F6E20312E302E300D2A2A2A2A2A2A2A06
:100DD0002A2A2A2A2A2A2A2A2A2A2A2A0D436F6DEF
:100DE0006D6F6E6473203A200D526E202D20527567
:100DF0006E2061207461736B20286E3D7461736B8B
:100E0000206E756D626572290D4B6E202D204B6929
:100E10006C6C2061207461736B20286E3D7461736B
:100E20006B206E756D626572290D50202D20536800
:100E30006F772072756E6E696E67207461736B20B8
:100E40006E756D6265720D53202D2053686F77208B
:100E50005365636F6E640D4D202D2053686F7720AE
:100E60004D696E7574650D48202D2053686F77208D
:100E7000486F75720D416E202D205072696E74207E
:100E80004144432076616C7565286E3D6368616EF0
:100E90006E656C206E756D626572290D4941202D5D
:100EA000205072696E742070696E20412076616CEA
:100EB00075650D4F41202D205072696E7420706F42
:100EC000727420412076616C75650D4942202D2099
:100ED0005072696E742070696E20422076616C7564
:100EE000650D4F42202D205072696E7420706F7214
:100EF0007420422076616C75650D000003E01FE1EF
:100F00001DBF0EBF1FEF14BB1ABB00E002BF05E000
:100F100003BF00E102BF05E00EBD07EF12EC0CBD00
:100F20001DBD04E005BD0AEF03BD05E009BFA0E655
:100F3000B0E000E014E6103019F00D931A95FBCFE5
:100F4000EAE7FDE0AFEAB0E00591003011F00D9363
:100F5000FBCFE9EFF3E011E00E94D3000E947101A2
:100F60000E94CD030E948C03EAE9FDE00E94F20397
:060F700078940C94F903D3
:00000001FF
