:020000020000FC
:040000000C948307D2
:040024000C948700B1
:040020000C94B40385
:1000600052C7A02FB12F4C91A22FB32F5D914517EE
:1000700051F4403051F02A2F3B2FA02FB12F4D913A
:100080000A2F1B2FEECF88940895089408952FEF20
:100090002F9320E030E00A3008F002C0103039F031
:1000A0002395203009F433950E946900F4CF0F9313
:1000B000022F132F003069F7103009F0EACF0F91AB
:1000C0000F3F21F010E3010F0D93F9CF00E00D93E6
:1000D000089540E04395003011F41A9500E00A9528
:1000E0004A30C1F708951091AD001023E1F708954B
:1000F0000E9473001091AD00102B1093AD00089575
:100100001091AD00009510231093AD000895F89460
:100110006F91D62F6F91C62F6FB70E942601A92F1E
:10012000B0E010E6A10F10E0B11F0D91002341F4E3
:1001300093959530A1F790E000E002BF90E0EFCFFB
:100140000E940A01EDBFFEBFEC2FFD2F90936600C9
:100150009395953009F490E06FBF69EF62BF789492
:100160000994F89430E0A0E6B0E02D912D9120178D
:1001700021F03395343089F0F9CF00E00E9301E09F
:100180000E94800002E00E948000109165001A9594
:1001900010936500789408940895889401E00E9473
:1001A000800002E00E9480000895F89400916500AC
:1001B000053071F103950093650030E0A0E6B0E0F2
:1001C00033950D91002319F03530D1F721C03A95C0
:1001D0001E93232F1DE0319FA02DB12D17E6A10FF7
:1001E00010E0B11F00E00D930D930D930D930D934F
:1001F0000D930D93ED93FD9300E4209FE02DF12DE1
:100200000FE1E00F03E0F01FED93FD9308940895D4
:10021000889408950DE0099FA02DB12D17E6A10F38
:1002200010E0B11FCFB7C0780D911D912D913D9178
:100230004D915D916D916F776C2BCD91DD91ED912D
:10024000FD917D918D91A72FB82F08957A2F8B2F37
:100250000F931F939F930DE090916600099FA02D2F
:10026000B12D17E6A10F10E0B11F9F911F910F91C3
:100270000D931D932D933D934D935D936D93CD936E
:10028000DD93CDB7DEB702E0C00F00E0D01FCD9305
:10029000DD937D938D9308950F931F93FF93EF93B9
:1002A00010E013950591002361F0003119F431D26B
:1002B0000C945F01113111F410E02BD248D20C9450
:1002C0005101EF91FF911F910F9108950F931F938B
:1002D00010E013950D91002361F0003119F419D24B
:1002E0000C947701113111F410E013D230D20C9438
:1002F00069011F910F910895A898A998AA982F9322
:100300003F930F9320E231E0303009F43395032F0F
:100310002A95302F3A9500000000000000000000F0
:10032000C9F72223A9F70F913F912F9100E205BB56
:10033000AA9A2F933F930F9320E231E0303009F4D3
:100340003395032F2A95302F3A95000000000000C6
:1003500000000000C9F72223A9F70F913F912F91C8
:10036000AA9800E005BB08E281D006E07FD00EE04D
:100370007DD001E07BD008951F932F933F93202FD2
:10038000302F207F3F70A898A998AA982F933F9369
:100390000F9320E231E0303009F43395032F2A9592
:1003A000302F3A9500000000000000000000C9F75F
:1003B0002223A9F70F913F912F91A89A13B3212BD4
:1003C00025BBAA9A2F933F930F9320E231E0303060
:1003D00009F43395032F2A95302F3A950000000039
:1003E000000000000000C9F72223A9F70F913F91F8
:1003F0002F91AA982F933F930F9320E231E0303052
:1004000009F43395032F2A95302F3A950000000008
:10041000000000000000C9F72223A9F70F913F91C7
:100420002F9113B31F703295312B35BBAA9A2F939E
:100430003F930F9320E231E0303009F43395032FDE
:100440002A95302F3A9500000000000000000000BF
:10045000C9F72223A9F70F913F912F91AA9810E095
:1004600015BBA8983F912F911F9108951F932F932B
:100470003F93202F302F207F3F70A898A998AA98EB
:100480002F933F930F9320E231E0303009F43395FE
:10049000032F2A95302F3A9500000000000000003D
:1004A0000000C9F72223A9F70F913F912F9125BB97
:1004B000AA9A2F933F930F9320E231E0303009F452
:1004C0003395032F2A95302F3A9500000000000045
:1004D00000000000C9F72223A9F70F913F912F9147
:1004E000AA982F933F930F9320E231E0303009F424
:1004F0003395032F2A95302F3A9500000000000015
:1005000000000000C9F72223A9F70F913F912F9116
:10051000329535BBAA9A2F933F930F9320E231E097
:10052000303009F43395032F2A95302F3A95000087
:100530000000000000000000C9F72223A9F70F9176
:100540003F912F91AA9810E015BB3F912F911F91D9
:1005500008951F930FE004BBA898A998AA982F9319
:100560003F930F9320E231E0303009F43395032FAD
:100570002A95302F3A95000000000000000000008E
:10058000C9F72223A9F70F913F912F91A99AAA9A0F
:100590002F933F930F9321E031E0303009F43395EE
:1005A000032F2A95302F3A9500000000000000002C
:1005B0000000C9F72223A9F70F913F912F9103B3B0
:1005C0002F933F930F9321E031E0303009F43395BE
:1005D000032F2A95302F3A950000000000000000FC
:1005E0000000C9F72223A9F70F913F912F91AA98F4
:1005F0002F933F930F9320E231E0303009F433958D
:10060000032F2A95302F3A950000000000000000CB
:100610000000C9F72223A9F70F913F912F91AA9AC1
:100620002F933F930F9321E031E0303009F433955D
:10063000032F2A95302F3A9500000000000000009B
:100640000000C9F72223A9F70F913F912F9113B30F
:100650002F933F930F9321E031E0303009F433952D
:10066000032F2A95302F3A9500000000000000006B
:100670000000C9F72223A9F70F913F912F91AA9863
:100680002F933F930F9321E031E0303009F43395FD
:10069000032F2A95302F3A9500000000000000003B
:1006A0000000C9F72223A9F70F913F912F91A99834
:1006B0002F933F930F9320E231E0303009F43395CC
:1006C000032F2A95302F3A9500000000000000000B
:1006D0000000C9F72223A9F70F913F912F91007FC6
:1006E0001F70012B1FEF14BB1F9108950F9331DF73
:1006F00000780038D9F30F9108950F9300E8B6DE23
:10070000F5DF0F9108950F9301E0B0DEEFDF0F9159
:1007100008950F9300ECAADEE9DF0F9108950F937F
:1007200000E1A4DEE3DF0F9108950F9304E19EDE64
:10073000DDDF0F9108950F930CE198DED7DF0F9165
:1007400008950F9308E192DED1DF0F91089514DE32
:10075000CDDF089506B1006406B908950770006CF6
:1007600007B900E806B908950F931F932F9307EF79
:1007700012EC0CBD1DBD0091A8000B3349F5109182
:10078000A9001B33D9F42091AA00273159F420E0A5
:100790002093AA002093A9002093A8002F911F91D5
:1007A0000F91189500E00093A9000093A8002395ED
:1007B0002093AA002F911F910F91189500E00093AC
:1007C000A80013951093A9002F911F910F911895D0
:1007D00003950093A8002F911F910F91189506E89B
:1007E00000BD08E10AB900E000BD07E609B90895B7
:1007F0001BB11078E9F30CB108951BB11072E9F345
:100800000CB908950E94F8030D3021F00D930E9459
:10081000FD03F8CF00E00D9308950D91003019F01D
:100820000E94FD03FACF08950591003019F00E944F
:10083000FD03FACF08950E948303AFEAB0E00E945F
:1008400066010E94F8030E94FD03013409F50E942D
:10085000F8030E94FD03202F0E94C505205302E0EB
:100860000E947800022F0E94AE030E94AA0302E0B9
:100870000E94800004B115B1AFEAB0E00E944700C9
:10088000AFEAB0E00E940D040DE00E94FD03D9CF55
:10089000023509F072C00E94F8030E94FD03202F68
:1008A0000E94C505022FF894013359F0023301F17B
:1008B0000333A9F1043309F449C078940E94E80590
:1008C000C0CF0091AE00017021F00E94E80578943D
:1008D000B8CFE3E0F6E012E00E94D5000E94D80510
:1008E00011E00091AE00012B0093AE007894A9CFE7
:1008F0000091AE00027021F00E94E8057894A1CF2B
:10090000EFE3F6E013E00E94D5000E94D80512E064
:100910000091AE00012B0093AE00789492CF00912D
:10092000AE00047021F00E94E80578948ACFE7E6D3
:10093000F6E014E00E94D5000E94D80514E0009172
:10094000AE00012B0093AE0078947BCF0091AE00F7
:10095000087021F00E94E805789473CFE1EAF6E090
:1009600015E00E94D5000E94D80518E00091AE0065
:10097000012B0093AE00789464CF0B3409F05BC078
:100980000E94F8030E94FD03202F0E94C505022F3C
:10099000013349F00233C9F0033349F10433C9F19B
:1009A0000E94E8054ECF0091AE00017019F40E943C
:1009B000E80547CF02E00E94B1000E94D8050091EF
:1009C000AE000E7F0093AE003CCF0091AE000270EF
:1009D00019F40E94E80535CF03E00E94B1000E949F
:1009E000D8050091AE000D7F0093AE002ACF009194
:1009F000AE00047019F40E94E80523CF04E00E94C1
:100A0000B1000E94D8050091AE000B7F0093AE00AC
:100A100018CF0091AE00087019F40E94E80511CFBC
:100A200005E00E94B1000E94D8050091AE00077F4A
:100A30000093AE0006CF003589F40E94C50510E092
:100A400000916500AFEAB0E00E944700AFEAB0E075
:100A50000E940D040DE00E94FD03F3CE033589F4DE
:100A60000E94C50510E00091A800AFEAB0E00E9426
:100A70004700AFEAB0E00E940D040DE00E94FD03C4
:100A8000E0CE0D3489F40E94C50510E00091A90064
:100A9000AFEAB0E00E944700AFEAB0E00E940D0468
:100AA0000DE00E94FD03CDCE083489F40E94C505F7
:100AB00010E00091AA00AFEAB0E00E944700AFEA60
:100AC000B0E00E940D040DE00E94FD03BACE0F3489
:100AD00051F50E94F8030E94FD03202F0E94C505D6
:100AE000022F10E0013429F0023481F00E94E80561
:100AF000A8CE0BB3AFEAB0E00E944700AFEAB0E087
:100B00000E940D040DE00E94FD039BCE08B3AFEAE6
:100B1000B0E00E944700AFEAB0E00E940D040DE093
:100B20000E94FD038ECE093451F50E94F8030E9405
:100B3000FD03202F0E94C505022F10E0013429F08B
:100B4000023481F00E94E8057CCE09B3AFEAB0E040
:100B50000E944700AFEAB0E00E940D040DE00E9441
:100B6000FD036FCE06B3AFEAB0E00E944700AFEAE4
:100B7000B0E00E940D040DE00E94FD0362CE0DE086
:100B80000E94FD030E94E8055CCE0DE00E94FD037B
:100B900000E20E94FD030E94FD030E94FD030E94EB
:100BA000FD030DE30E94FD0300E20E94FD03089592
:100BB00004E40E94FD030FE60E94FD030EE60E947E
:100BC000FD0305E60E94FD030DE00E94FD0308956C
:100BD00005E40E94FD0302E70E94FD0302E70E9474
:100BE000FD030FE60E94FD0302E70E94FD0301E200
:100BF0000E94FD030DE00E94FD03089507E705BD77
:100C0000089503BD089507B3016020E807BBC09AAB
:100C10002F933F930F9321E030E0303009F4339568
:100C2000032F2A95302F3A950000000000000000A5
:100C30000000C9F72223A9F70F913F912F91C09887
:100C40002F933F930F9321E030E0303009F4339538
:100C5000032F2A95302F3A95000000000000000075
:100C60000000C9F72223A9F70F913F912F91139507
:100C70001F3F69F62095207C2BBB10E0C8CF07B33F
:100C8000006F07BBB39BFECFB399FECF11961A2F0F
:100C90001F7008B3012B000F000F000F000F08BBDF
:100CA000AF93BF930A2F1B2FA0E0B1E00E94470033
:100CB000A0E0B1E001E00E9478000E9483030E945E
:100CC000660101E00E948000BF91AF91DBCF50E050
:100CD0000091A8000517E1F3502F02E00E94780070
:100CE00000E00E94AE030E94AA0302E00E9480007E
:100CF00004B115B10E949E060E949E06A6E0B1E0D6
:100D00000E94470001E00E9478000E94830304E5EE
:100D10000E94A70305E40E94A7030DE40E94A70315
:100D200000E50E94A7030AE30E94A703A6E0B1E042
:100D30000E94660101E00E948000CACF16950795C7
:100D4000089500E801BB0E94FE0550E0B19BFECF74
:100D5000B199FECF05E0500F052F0E940106052F27
:100D600010E0ACE0B1E00E944700ACE0B1E001E08F
:100D70000E9478000E9483030E94660101E00E94A5
:100D80008000E4CF2A2A2A2A2A415652204F532A89
:100D90002A2A2A2A0D2056657273696F6E312E3009
:100DA0002E30200048656C6C6F2046726F6D204DB0
:100DB00020652067206120312036202121210D412E
:100DC00056524F532056657273696F6E20312E3024
:100DD0002E300D2A2A2A2A2A2A2A2A2A2A2A2A2A86
:100DE0002A2A2A2A2A2A0D436F6D6D6F6E6473209A
:100DF0003A200D526E202D2052756E2061207461B4
:100E0000736B20286E3D7461736B206E756D626527
:100E100072290D4B6E202D204B696C6C2061207463
:100E200061736B20286E3D7461736B206E756D620B
:100E30006572290D50202D2053686F772072756ED2
:100E40006E696E67207461736B206E756D6265727A
:100E50000D53202D2053686F77205365636F6E64A8
:100E60000D4D202D2053686F77204D696E75746588
:100E70000D48202D2053686F7720486F75720D4103
:100E80006E202D205072696E74204144432076619B
:100E90006C7565286E3D6368616E6E656C206E755D
:100EA0006D626572290D4941202D205072696E7462
:100EB0002070696E20412076616C75650D4F412070
:100EC0002D205072696E7420706F727420412076EC
:100ED000616C75650D4942202D205072696E742039
:100EE00070696E20422076616C75650D4F42202D31
:100EF000205072696E7420706F7274204220766187
:100F00006C75650D000003E01FE11DBF0EBF1FEFF4
:100F100014BB1ABB00E002BF01E003BF00E102BF47
:100F200005E00EBD07EF12EC0CBD1DBD04E005BDD4
:100F30000AEF03BD05E009BFE4E8FDE0AFEAB0E079
:100F40000591003011F00D93FBCFEBE1F4E011E0DF
:100F50000E94D5000E947C010E94EF030E94AE0314
:0E0F6000E4EAFDE00E94140478940C941B0453
:00000001FF
